:020000040800F2
:1000000000500020B1100008011100080111000883
:100010000111000801110008011100080000000092
:1000200000000000000000000000000001110008B6
:100030000111000800000000011100085D10000817
:100040000111000801110008011100080111000848
:100050000111000801110008011100080111000838
:100060000111000801110008011100080111000828
:100070000111000801110008011100080111000818
:100080000111000801110008011100080111000808
:1000900001110008011100080111000801110008F8
:1000A00001110008011100080111000801110008E8
:1000B00001110008011100080111000801110008D8
:1000C00001110008011100080111000801110008C8
:1000D00001110008011100080111000801110008B8
:1000E00001110008011100080000000001110008C2
:1000F0000111000801110008011100080111000898
:100100000111000801110008011100080111000887
:100110000111000801110008011100080111000877
:100120000111000801110008011100080111000867
:1001300010B5054C237833B9044B13B10448AFF321
:1001400000800123237010BD00000020000000008B
:100150000412000808B5034B1BB103490348AFF371
:10016000008008BD00000000040000200412000808
:1001700080F0004002E000BF81F0004142001FBF5C
:100180005FEA410392EA030F7FEA226C7FEA236C65
:100190006AD04FEA1262D2EB1363C1BFD21841405A
:1001A00048404140B8BF5B42192B88BF704710F0F0
:1001B000004F40F4000020F07F4018BF404211F093
:1001C000004F41F4000121F07F4118BF494292EAFB
:1001D000030F3FD0A2F1010241FA03FC10EB0C0027
:1001E000C3F1200301FA03F100F0004302D54942B4
:1001F00060EB4000B0F5000F13D3B0F1807F06D361
:1002000040084FEA310102F10102FE2A51D2B1F158
:10021000004F40EBC25008BF20F0010040EA03004D
:100220007047490040EB0000013A28BFB0F5000FCD
:10023000EDD2B0FA80FCACF1080CB2EB0C0200FA83
:100240000CF0AABF00EBC25052421843BCBFD040D2
:100250001843704792F0000F81F4000106BF80F44C
:1002600000000132013BB5E74FEA41037FEA226C0F
:1002700018BF7FEA236C21D092EA030F04D092F0DA
:10028000000F08BF0846704790EA010F1CBF00200E
:10029000704712F07F4F04D1400028BF40F000406B
:1002A000704712F100723CBF00F50000704700F08B
:1002B000004343F0FE4040F4000070477FEA2262B2
:1002C00016BF08467FEA23630146420206BF5FEA83
:1002D000412390EA010F40F4800070474FF0000383
:1002E00004E000BF10F0004348BF40425FEA000C4A
:1002F00008BF704743F0964301464FF000001CE0F2
:1003000050EA010208BF70474FF000030AE000BF47
:1003100050EA010208BF704711F0004302D5404285
:1003200061EB41015FEA010C02BF844601460020F7
:1003300043F0B64308BFA3F18053A3F50003BCFA12
:100340008CF2083AA3EBC25310DB01FA02FC6344BF
:1003500000FA02FCC2F12002BCF1004F20FA02F2C6
:1003600043EB020008BF20F00100704702F12002B9
:1003700001FA02FCC2F1200250EA4C0021FA02F21A
:1003800043EB020008BF20EADC7070474FF0FF0C1F
:100390001CEAD0521EBF1CEAD15392EA0C0F93EA1A
:1003A0000C0F6FD01A4480EA010C400218BF5FEABC
:1003B00041211ED04FF0006343EA501043EA51112F
:1003C000A0FB01310CF00040B1F5000F3EBF490029
:1003D00041EAD3715B0040EA010062F17F02FD2A2D
:1003E0001DD8B3F1004F40EBC25008BF20F0010010
:1003F000704790F0000F0CF0004C08BF49024CEA27
:10040000502040EA51207F3AC2BFD2F1FF0340EAB8
:10041000C250704740F400004FF00003013A5DDC29
:1004200012F1190FDCBF00F000407047C2F100026A
:10043000410021FA02F1C2F1200200FA02FC5FEA57
:10044000310040F1000053EA4C0308BF20EADC70A1
:10045000704792F0000F00F0004C02BF400010F413
:10046000000F013AF9D040EA0C0093F0000F01F0C0
:10047000004C02BF490011F4000F013BF9D041EAE2
:100480000C018FE70CEAD15392EA0C0F18BF93EAE4
:100490000C0F0AD030F0004C18BF31F0004CD8D10E
:1004A00080EA010000F00040704790F0000F17BF95
:1004B00090F0004F084691F0000F91F0004F14D0DB
:1004C00092EA0C0F01D142020FD193EA0C0F03D133
:1004D0004B0218BF084608D180EA010000F0004036
:1004E00040F0FE4040F40000704740F0FE4040F411
:1004F000400070474FF0FF0C1CEAD0521EBF1CEAB0
:10050000D15392EA0C0F93EA0C0F69D0A2EB0302CD
:1005100080EA010C49024FEA402037D04FF0805367
:1005200043EA111143EA10130CF000408B4238BF2C
:100530005B0042F17D024FF4000C8B4224BF5B1A3A
:1005400040EA0C00B3EB510F24BFA3EB510340EA88
:100550005C00B3EB910F24BFA3EB910340EA9C0036
:10056000B3EBD10F24BFA3EBD10340EADC001B01A6
:1005700018BF5FEA1C1CE0D1FD2A3FF650AF8B424A
:1005800040EBC25008BF20F0010070470CF0004C57
:100590004CEA50207F32C2BFD2F1FF0340EAC25082
:1005A000704740F400004FF00003013A37E792F043
:1005B000000F00F0004C02BF400010F4000F013AA1
:1005C000F9D040EA0C0093F0000F01F0004C02BF9C
:1005D000490011F4000F013BF9D041EA0C0195E705
:1005E0000CEAD15392EA0C0F08D142027FF47DAF9E
:1005F00093EA0C0F7FF470AF084676E793EA0C0F8E
:1006000004D14B023FF44CAF08466EE730F0004C8B
:1006100018BF31F0004CCAD130F000427FF45CAF1B
:1006200031F000437FF43CAF5FE700BF4FEA400288
:10063000B2F1FE4F0FD34FF09E03B3EB12620DD910
:100640004FEA002343F0004310F0004F23FA02F07A
:1006500018BF404270474FF00000704712F1610F21
:1006600001D1420205D110F0004008BF6FF00040F8
:1006700070474FF00000704742000ED2B2F1FE4FBB
:100680000BD34FF09E03B3EB126209D44FEA002361
:1006900043F0004323FA02F070474FF00000704728
:1006A00012F1610F01D1420202D14FF0FF307047C9
:1006B0004FF00000704700BF10B500F0AEFA00F038
:1006C000E5F900210B4A084600F06AFB00210120F1
:1006D000094A00F065FB094C2378632B03D1BDE880
:1006E000104000F048BB00F0D5F92070C82000F0A1
:1006F000A7FCF1E71C1200082C1200081C000020C7
:1007000000232DE9F041134E134FDFF85080337072
:1007100000F0C0F93870C82000F092FC3C782B2C17
:1007200005D02D2C03D02F2C01D02A2C06D10C4B18
:1007300020461C70BDE8F04100F0B1BA2046FFF73A
:10074000CDFD357848F8250001352046357000F09C
:1007500030FBDDE71D0000201C00002020000020F1
:100760007000002000232DE9F0410F4E0F4FDFF8FD
:100770004080337000F08EF93870C82000F060FCC3
:100780003C783D2C04D12046BDE8F04100F087BA0A
:100790002046FFF7A3FD357848F8250001352046AF
:1007A000357000F006FBE5E71E0000201C0000206D
:1007B000480000202DE9F84F80460F4692469946A2
:1007C000002604680D68DFF878B00136F3B29A4568
:1007D0001AD80026DFF868800136F3B299451DD893
:1007E0000021012000F0CAFA29462046FFF7C6FC86
:1007F000FFF71CFF00F0DDFA124C2378632B17D1B2
:10080000BDE8F84F00F0B7BA59462046FFF7BEFDE5
:1008100058F82610FFF7B2FC0446D6E741462846B2
:10082000FFF7B4FD57F82610FFF7A8FC0546D3E7FD
:1008300000F030F92070C82000F002FCDDE700BFB6
:10084000000020411C0000202DE9F84F8046006880
:100850000F4692469946FFF70FFF85B23868FFF7BB
:100860000BFF00264FF00A0B84B20136F3B253455A
:1008700015D300264FF00A080136F3B24B451AD3C0
:100880000021012000F07AFA281B00F092FA134CA4
:100890002378632B1BD1BDE8F84F00F06CBA0BFB3B
:1008A00005F0FFF71FFD58F82610FFF767FCFFF76C
:1008B000E3FE85B2D9E708FB04F0FFF713FD57F814
:1008C0002610FFF75BFCFFF7D7FE84B2D4E700F0F9
:1008D000E1F82070C82000F0B3FBD9E71C0000202D
:1008E0002DE9F84F80460F46924699460026046847
:1008F0000D68DFF878B00136F3B29A451AD80026B1
:10090000DFF868800136F3B299451DD80021012037
:1009100000F034FA29462046FFF738FDFFF786FE3F
:1009200000F047FA124C2378632B17D1BDE8F84F3B
:1009300000F021BA59462046FFF728FD58F8261046
:10094000FFF71CFC0446D6E741462846FFF71EFD8C
:1009500057F82610FFF712FC0546D3E700F09AF887
:100960002070C82000F06CFBDDE700BF00002041D4
:100970001C0000202DE9F84F80460F46924699460C
:10098000002604680D68DFF878B00136F3B29A45A6
:100990001AD80026DFF868800136F3B299451DD8D1
:1009A0000021012000F0EAF929462046FFF7A2FDC8
:1009B000FFF73CFE00F0FDF9124C2378632B17D1B2
:1009C000BDE8F84F00F0D7B959462046FFF7DEFCE6
:1009D00058F82610FFF7D2FB0446D6E741462846D2
:1009E000FFF7D4FC57F82610FFF7C8FB0546D3E7FE
:1009F00000F050F82070C82000F022FBDDE700BFB7
:100A0000000020411C00002010B5FFF779FEFFF721
:100A1000A9FE194B1B782A3B052B2CD8DFE803F0E5
:100A200017032B0D2B21154B154A1B7812781549EE
:100A30001548BDE81040FFF7BDBE104B104A1B78AB
:100A4000127810491048BDE81040FFF7FDBE0B4B6F
:100A50000B4A1B7812780B490B48BDE81040FFF792
:100A60003FBF064B064A1B78127806490648BDE888
:100A70001040FFF77FBF10BD700000201E00002057
:100A80001D0000204800002020000020012122201D
:100A900000F056BA2DE9F341002418220421204623
:100AA0008DF8074000F098F918220521204600F043
:100AB00093F918220621204600F08EF9182207210A
:100AC000204600F089F918222146204600F084F9DA
:100AD00018220121204600F07FF918220221204629
:100AE00000F07AF918220321204600F075F932202F
:100AF00000F0A6FA00265FFA86F808F10405EDB2C8
:100B000003222946002000F067F9002229461046FA
:100B100000F0B4F90027FCB2214600200DF10702D5
:100B200000F0C8F99DF807305BB10137042FF2D10E
:100B3000182229460020013600F04EF9042EDAD1A1
:100B4000D5E7044B04EB8804E4B2185D02B0BDE8BD
:100B5000F08100BF3C120008002210B50C210446B1
:100B6000104600F08BF9012000F06AFA01220521FD
:100B7000104600F083F9012000F062FAC4F300127D
:100B80000621012000F07AF9C4F340120721012068
:100B900000F074F9C4F380120821012000F06EF90E
:100BA000E2090921012000F069F9012000F048FA6A
:100BB00000220521012000F061F9012000F040FA37
:100BC00001220521104600F059F9012000F038FA01
:100BD00004F001020621012000F050F9C4F34002A4
:100BE0000721012000F04AF9C4F380020821012006
:100BF00000F044F9C4F3C0020921012000F03EF9DD
:100C0000012000F01DFA00220521012000F036F934
:100C1000BDE81040012000F013BA08B501212220E0
:100C200000F08EF90121232000F08AF90121232010
:100C300000F086F902220C21002000F0CDF80222FB
:100C40000521012000F0C8F8142000F0F9F9022273
:100C50000621012000F0C0F802220721012000F047
:100C6000BBF802220821012000F0B6F80222092177
:100C7000012000F0B1F83320FFF76EFF3220FFF7BC
:100C80006BFF2820FFF768FF0C20FFF765FF0120AE
:100C9000FFF762FFBDE808400A2000F0D1B910B5A7
:100CA000012204460C21002000F0E8F8012000F0A9
:100CB000C7F901220521104600F0E0F8012000F0FC
:100CC000BFF9C4F300120621012000F0D7F8C4F3E5
:100CD00040120721012000F0D1F8C4F3801208214E
:100CE000012000F0CBF8E2090921012000F0C6F84C
:100CF000012000F0A5F900220521012000F0BEF836
:100D0000012000F09DF901220521104600F0B6F8FF
:100D1000012000F095F904F001020621012000F005
:100D2000ADF8C4F340020721012000F0A7F8C4F396
:100D300080020821012000F0A1F8C4F3C0020921BB
:100D4000012000F09BF8012000F07AF90022052133
:100D5000012000F093F8BDE81040012000F070B9C8
:100D600038B505460024E3B2E85C013400B938BD6B
:100D7000FFF795FFF7E70120FFF7EEBE03280DD838
:100D8000DFE800F00402080A4031C9B241F08000F7
:100D9000FFF7E2BE1031F8E75031F6E70021F5E742
:100DA00010B51446FFF7EAFF2046BDE81040FFF7F4
:100DB000D7BF1FB50A22694600F0BBF96846FFF7A6
:100DC000CFFF05B05DF804FB08B5002000F002F984
:100DD000BDE8084000F084B80428034670B548D840
:100DE0000729C2F3001002F0EF0221D80F26224C8F
:100DF000082A54F823304FEA81041D6806FA04F6E5
:100E000025EA06051D601D6802FA04F444EA05049B
:100E10001C6001D0012070BD0124DA6804FA01F1E0
:100E200018B922EA0102DA60F4E71143D960F2E767
:100E30000F291ED80F26104C083954F82340C9B288
:100E400065688B009E4025EA06056560656802FAC4
:100E500003F32B43082A6360DCD10122E36802FA22
:100E600001F118B923EA0103E360D3E71943E16014
:100E7000D1E70020CFE700BF4C1200080346042B47
:100E8000104613D80F2911D842B1012A0ED1084AB1
:100E900000FA01F152F82330196170470120044A29
:100EA00000FA01F152F82330596170470020704771
:100EB0004C120008042810B50DD80F290BD8074B89
:100EC00053F8203001209C6800FA01F3234023FAF4
:100ED00001F1117010BD0020FCE700BF4C120008AA
:100EE000154B1A6822F0F80242F080021A601A6864
:100EF00042F001021A60114A1968890701D4013AC7
:100F0000FAD15A68012022F001025A605A6822F090
:100F100002025A605A6822F440425A605A6822F427
:100F200060525A605A6822F4E0625A605A6822F0AD
:100F3000F0025A60704700BF00100240A186010015
:100F400003461F2B084612D841B101293DD1204A42
:100F500000FA03F351690B435361704701201C49A8
:100F600000FA03F34A6922EA03034B6170473F2BFF
:100F700014D8203BDBB241B1012926D1144A00FA32
:100F800003F391690B43936170470120104900FA04
:100F900003F38A6922EA03038B6170475F2B14D83D
:100FA000403BDBB241B101290FD1094A00FA03F3FA
:100FB000D1690B43D36170470120054900FA03F35F
:100FC000CA6922EA0303CB6170470020704700BF63
:100FD000001002404FF0E02358B901201A6942F096
:100FE00004021A614FF0E022136923F00103136138
:100FF0007047012809BF1A69002022F004021A6113
:10100000F0E74FF0E0231A6951071A6948BFC000A2
:1010100022F002021A6158611A6942F001021A6153
:1010200000229A614FF0E0231A69D203FCD51A69B5
:10103000012022F001021A6100225A619A61704770
:1010400038B504460025A54201D1012038BD4FF432
:101050007A70FFF7D6FF0135F5E7000008B50E4BB3
:101060001B78012B0CD14FF0E0231A6922F001020A
:101070001A611A6922F002021A6100225A619A6109
:10108000064B1B6803B198474FF0E022136923F425
:101090008033136108BD00BF780000207400002079
:1010A00008B5FFF791FEFFF707FBFFF7ADFCFCE784
:1010B0000D488546AFF300800C480D490D4A0023CA
:1010C00002E0D458C4500433C4188C42F9D30A4AFD
:1010D0000A4C002301E013600432A242FBD300F06B
:1010E0006DF8FFF7DDFFFEE7005000200000002054
:1010F0000000002090120008000000207C0000206A
:10110000FEE7931E222B10B50C4604D900231C4683
:101110000B70204610BD0A2A09D1002807DA2D23BA
:101120000B7001214042214400F006F8F1E7002154
:10113000F9E7FFF7E6BF0000F0B58BB005460B46B8
:101140006E461D4C04F1200C374620686168083457
:1011500003C764453E46F7D1217920683971911E55
:10116000222938604FF0000104D919700B46184647
:101170000BB0F0BD581E8446B5FBF2F702FB1756C4
:1011800028366E4416F8286C0C460CF8016F2E4673
:10119000B2423D4601F10101EED900225A5419191B
:1011A000A51AAA42E3DA10F8015F0E780132067040
:1011B00001F80159F4E700BF6012000870B500267D
:1011C0000C4D0D4C641BA410A64209D100F01AF876
:1011D00000260A4D0A4C641BA410A64205D170BD1E
:1011E00055F8043B98470136EEE755F8043B98471D
:1011F0000136F2E7881200088812000888120008F9
:101200008C120008F8B500BFF8BC08BC9E467047B9
:0C121000F8B500BFF8BC08BC9E46704753
:10121C00415050312043616C63756C61746F720086
:10122C0041202B2042202D2043202A2044202F0017
:10123C000102032B0405062D0708092A63003D2F24
:10124C0000080140000C0140001001400014014056
:10125C000018014030313233343536373839616259
:10126C00636465666768696A6B6C6D6E6F707172CA
:0C127C00737475767778797A00000000B2
:041288005501000804
:04128C003101000824
:04000005080010B12E
:00000001FF
