:020000040800F2
:100000000050002065090008B5090008B50900087E
:10001000B5090008B5090008B5090008000000008E
:10002000000000000000000000000000B50900080A
:10003000B509000800000000B50900081109000812
:10004000B5090008B5090008B5090008B509000898
:10005000B5090008B5090008B5090008B509000888
:10006000B5090008B5090008B5090008B509000878
:10007000B5090008B5090008B5090008B509000868
:10008000B5090008B5090008B5090008B509000858
:10009000B5090008B5090008B5090008B509000848
:1000A000B5090008B5090008B5090008B509000838
:1000B000B5090008B5090008B5090008B509000828
:1000C000B5090008B5090008B5090008B509000818
:1000D000B5090008B5090008B5090008B509000808
:1000E000B5090008B509000800000000B5090008BE
:1000F000B5090008B5090008B5090008B5090008E8
:10010000B5090008B5090008B5090008B5090008D7
:10011000B5090008B5090008B5090008B5090008C7
:10012000B5090008B5090008B5090008B5090008B7
:1001300010B5054C237833B9044B13B10448AFF321
:1001400000800123237010BD00000020000000008B
:10015000B80A000808B5034B1BB103490348AFF3C5
:10016000008008BD0000000004000020B80A00085C
:1001700010B500F0ACF900F0E3F800210B4A084696
:1001800000F068FA00210120094A00F063FA094CE6
:100190002378632B03D1BDE8104000F046BA00F08D
:1001A000D3F82070C82000F0A5FBF1E7D00A0008C2
:1001B000DF0A00081E000020002370B51F4C204EEF
:1001C000204D237000F0C0F83070C82000F092FB82
:1001D00030782B2801D02D281CD11B4E30701B48A5
:1001E00000F018FA33782B2B10D1422000F0B1F92F
:1001F000002211462B7816482678124C03800132D3
:10020000D5B2AE4210D801B1038070BD2D2BEFD115
:100210005820EBE72378E8540133237000F023FAE9
:1002200023780B2BCED1E3E714F8011F03EB8303F4
:1002300001EB43039BB20121E1E700BF290000204D
:100240001E0000201F0000202A000020EB0A0008EA
:100250001C00002038B500210546012000F0E8F917
:100260000F2445FA04F000F0010000F0FCF9013C15
:10027000F7D2074C2378632B03D1BDE8384000F058
:10028000D4B900F061F82070C82000F033FBF1E72A
:100290001E00002013B5002400F00F021346092AA7
:1002A000E2B202F1080294BF303337336A440F28B8
:1002B00002F8083CC0F30F1204F1010312D8002128
:1002C000012000F0B5F90F4800F0A4F964B223064C
:1002D0000BD50D4C2378632B0DD102B0BDE8104037
:1002E00000F0A3B91C461046D6E71DF8040000F044
:1002F00030F9013CEBE700F027F82070C82000F04F
:10030000F9FAE7E7F00A00081E00002008B5FFF739
:1003100053FF094B1B782B2B02D02D2B06D008BD89
:10032000064B1888BDE80840FFF794BF034B1888B8
:10033000BDE80840FFF7AEBF2A0000201C000020E7
:100340000121222000F056BA2DE9F34100241822A1
:10035000042120468DF8074000F098F91822052165
:10036000204600F093F918220621204600F08EF96D
:1003700018220721204600F089F91822214620463C
:1003800000F084F918220121204600F07FF918229C
:100390000221204600F07AF918220321204600F0BD
:1003A00075F9322000F0A6FA00265FFA86F808F107
:1003B0000405EDB203222946002000F067F900226F
:1003C0002946104600F0B4F90027FCB2214600206F
:1003D0000DF1070200F0C8F99DF807305BB1013755
:1003E000042FF2D1182229460020013600F04EF9E0
:1003F000042EDAD1D5E7044B04EB8804E4B2185D8F
:1004000002B0BDE8F08100BFF30A0008002210B579
:100410000C210446104600F08BF9012000F06AFA26
:1004200001220521104600F083F9012000F062FA54
:10043000C4F300120621012000F07AF9C4F340123F
:100440000721012000F074F9C4F380120821012073
:1004500000F06EF9E2090921012000F069F901209C
:1004600000F048FA00220521012000F061F9012086
:1004700000F040FA01220521104600F059F9012050
:1004800000F038FA04F001020621012000F050F9D2
:10049000C4F340020721012000F04AF9C4F38002AE
:1004A0000821012000F044F9C4F3C0020921012011
:1004B00000F03EF9012000F01DFA00220521012084
:1004C00000F036F9BDE81040012000F013BA08B57D
:1004D0000121222000F08EF90121232000F08AF969
:1004E0000121232000F086F902220C21002000F0D7
:1004F000CDF802220521012000F0C8F8142000F0F8
:10050000F9F902220621012000F0C0F80222072199
:10051000012000F0BBF802220821012000F0B6F80B
:1005200002220921012000F0B1F83320FFF76EFF0D
:100530003220FFF76BFF2820FFF768FF0C20FFF742
:1005400065FF0120FFF762FFBDE808400A2000F0C8
:10055000D1B910B5012204460C21002000F0E8F8C2
:10056000012000F0C7F901220521104600F0E0F853
:10057000012000F0BFF9C4F300120621012000F0B1
:10058000D7F8C4F340120721012000F0D1F8C4F3DA
:1005900080120821012000F0CBF8E2090921012096
:1005A00000F0C6F8012000F0A5F900220521012085
:1005B00000F0BEF8012000F09DF90122052110464F
:1005C00000F0B6F8012000F095F904F001020621D0
:1005D000012000F0ADF8C4F340020721012000F033
:1005E000A7F8C4F380020821012000F0A1F8C4F3A9
:1005F000C0020921012000F09BF8012000F07AF9E7
:1006000000220521012000F093F8BDE810400120F0
:1006100000F070B938B505460024E3B2E85C013457
:1006200000B938BDFFF795FFF7E70120FFF7EEBEF1
:1006300003280DD8DFE800F00402080A4031C9B2EF
:1006400041F08000FFF7E2BE1031F8E75031F6E7E5
:100650000021F5E710B51446FFF7EAFF2046BDE894
:100660001040FFF7D7BF1FB50A22694600F0BBF95B
:100670006846FFF7CFFF05B05DF804FB08B5002022
:1006800000F002F9BDE8084000F084B804280346F1
:1006900070B548D80729C2F3001002F0EF0221D844
:1006A0000F26224C082A54F823304FEA81041D6893
:1006B00006FA04F625EA06051D601D6802FA04F430
:1006C00044EA05041C6001D0012070BD0124DA68F1
:1006D00004FA01F118B922EA0102DA60F4E71143E1
:1006E000D960F2E70F291ED80F26104C083954F8AC
:1006F0002340C9B265688B009E4025EA0605656007
:10070000656802FA03F32B43082A6360DCD10122F7
:10071000E36802FA01F118B923EA0103E360D3E7C1
:100720001943E160D1E70020CFE700BF040B0008C8
:100730000346042B104613D80F2911D842B1012AC1
:100740000ED1084A00FA01F152F8233019617047BE
:100750000120044A00FA01F152F823305961704730
:1007600000207047040B0008042810B50DD80F298D
:100770000BD8074B53F8203001209C6800FA01F396
:10078000234023FA01F1117010BD0020FCE700BFE7
:10079000040B0008154B1A6822F0F80242F08002A0
:1007A0001A601A6842F001021A60114A1968890732
:1007B00001D4013AFAD15A68012022F001025A60AC
:1007C0005A6822F002025A605A6822F440425A6083
:1007D0005A6822F460525A605A6822F4E0625A6001
:1007E0005A6822F0F0025A60704700BF00100240C1
:1007F000A186010003461F2B084612D841B10129EA
:100800003DD1204A00FA03F351690B43536170470D
:1008100001201C4900FA03F34A6922EA03034B61F1
:1008200070473F2B14D8203BDBB241B1012926D1C0
:10083000144A00FA03F391690B4393617047012056
:10084000104900FA03F38A6922EA03038B617047B7
:100850005F2B14D8403BDBB241B101290FD1094ACB
:1008600000FA03F3D1690B43D361704701200549B6
:1008700000FA03F3CA6922EA0303CB617047002040
:10088000704700BF001002404FF0E02358B901202C
:100890001A6942F004021A614FF0E022136923F052
:1008A000010313617047012809BF1A69002022F073
:1008B00004021A61F0E74FF0E0231A6951071A6940
:1008C00048BFC00022F002021A6158611A6942F062
:1008D00001021A6100229A614FF0E0231A69D203E3
:1008E000FCD51A69012022F001021A6100225A6126
:1008F0009A61704738B504460025A54201D1012010
:1009000038BD4FF47A70FFF7D6FF0135F5E70000E8
:1009100008B50E4B1B78012B0CD14FF0E0231A6960
:1009200022F001021A611A6922F002021A61002201
:100930005A619A61064B1B6803B198474FF0E02259
:10094000136923F48033136108BD00BF3000002019
:100950002C00002008B5FFF791FEFFF709FCFFF718
:10096000D5FCFCE70D488546AFF300800C480D49E7
:100970000D4A002302E0D458C4500433C4188C42FA
:10098000F9D30A4A0A4C002301E013600432A24260
:10099000FBD300F06DF8FFF7DDFFFEE7005000200D
:1009A0000000002000000020480B0008000000208C
:1009B00034000020FEE7931E222B10B50C4604D90C
:1009C00000231C460B70204610BD0A2A09D10028BE
:1009D00007DA2D230B7001214042214400F006F874
:1009E000F1E70021F9E7FFF7E6BF0000F0B58BB0B3
:1009F00005460B466E461D4C04F1200C3746206818
:100A00006168083403C764453E46F7D12179206800
:100A10003971911E222938604FF0000104D91970F4
:100A20000B4618460BB0F0BD581E8446B5FBF2F7D6
:100A300002FB175628366E4416F8286C0C460CF844
:100A4000016F2E46B2423D4601F10101EED900226E
:100A50005A541919A51AAA42E3DA10F8015F0E7860
:100A60000132067001F80159F4E700BF180B0008C5
:100A700070B500260C4D0D4C641BA410A64209D184
:100A800000F01AF800260A4D0A4C641BA410A64276
:100A900005D170BD55F8043B98470136EEE755F88F
:100AA000043B98470136F2E7400B0008400B000872
:100AB000400B0008440B0008F8B500BFF8BC08BCA8
:100AC0009E467047F8B500BFF8BC08BC9E4670470C
:100AD00041505032204E554D424552494E470041FB
:100AE00020443E42204220443E58002020443E0004
:100AF0003078000102032B0405062D0708092A633C
:100B0000003D2F0000080140000C01400010014092
:100B1000001401400018014030313233343536378B
:100B200038396162636465666768696A6B6C6D6EAB
:100B30006F707172737475767778797A000000003F
:040B40005501000853
:040B44003101000873
:040000050800096581
:00000001FF
